0101414575-001CN C«ng ty TNHH s¶n xuÊt vµ th­¬ng m¹i Phó Minh                                                     375400000011501151              500000
0101414575-001CN C«ng ty TNHH s¶n xuÊt vµ th­¬ng m¹i Phó Minh                                                     375400000036503651               10000
0101414575-001CN C«ng ty TNHH s¶n xuÊt vµ th­¬ng m¹i Phó Minh                                                     375400000049004904              100000
0101414575-001CN C«ng ty TNHH s¶n xuÊt vµ th­¬ng m¹i Phó Minh                                                     375400000049004908              100000
0101414575-001CN C«ng ty TNHH s¶n xuÊt vµ th­¬ng m¹i Phó Minh                                                     375400000049004911              100000
